{
  "_format": "hh-sol-artifact-1",
  "contractName": "Collection",
  "sourceName": "contracts/Collection.sol",
  "abi": [
    {
      "inputs": [
        {
          "internalType": "string",
          "name": "name",
          "type": "string"
        },
        {
          "internalType": "string",
          "name": "symbol",
          "type": "string"
        },
        {
          "internalType": "string",
          "name": "_newBaseURI",
          "type": "string"
        },
        {
          "internalType": "string[]",
          "name": "nftSymbols",
          "type": "string[]"
        },
        {
          "internalType": "uint256[]",
          "name": "nftPrices",
          "type": "uint256[]"
        },
        {
          "internalType": "uint16[]",
          "name": "nftInitialTokens",
          "type": "uint16[]"
        },
        {
          "internalType": "uint16[]",
          "name": "nftFinalTokens",
          "type": "uint16[]"
        },
        {
          "internalType": "address[]",
          "name": "_whitelistedAddresses",
          "type": "address[]"
        },
        {
          "internalType": "uint256",
          "name": "_saleDateTime",
          "type": "uint256"
        },
        {
          "internalType": "address",
          "name": "_payments",
          "type": "address"
        }
      ],
      "stateMutability": "nonpayable",
      "type": "constructor"
    },
    {
      "anonymous": false,
      "inputs": [
        {
          "indexed": true,
          "internalType": "address",
          "name": "owner",
          "type": "address"
        },
        {
          "indexed": true,
          "internalType": "address",
          "name": "approved",
          "type": "address"
        },
        {
          "indexed": true,
          "internalType": "uint256",
          "name": "tokenId",
          "type": "uint256"
        }
      ],
      "name": "Approval",
      "type": "event"
    },
    {
      "anonymous": false,
      "inputs": [
        {
          "indexed": true,
          "internalType": "address",
          "name": "owner",
          "type": "address"
        },
        {
          "indexed": true,
          "internalType": "address",
          "name": "operator",
          "type": "address"
        },
        {
          "indexed": false,
          "internalType": "bool",
          "name": "approved",
          "type": "bool"
        }
      ],
      "name": "ApprovalForAll",
      "type": "event"
    },
    {
      "anonymous": false,
      "inputs": [
        {
          "indexed": true,
          "internalType": "address",
          "name": "previousOwner",
          "type": "address"
        },
        {
          "indexed": true,
          "internalType": "address",
          "name": "newOwner",
          "type": "address"
        }
      ],
      "name": "OwnershipTransferred",
      "type": "event"
    },
    {
      "anonymous": false,
      "inputs": [
        {
          "indexed": true,
          "internalType": "address",
          "name": "from",
          "type": "address"
        },
        {
          "indexed": true,
          "internalType": "address",
          "name": "to",
          "type": "address"
        },
        {
          "indexed": true,
          "internalType": "uint256",
          "name": "tokenId",
          "type": "uint256"
        }
      ],
      "name": "Transfer",
      "type": "event"
    },
    {
      "inputs": [
        {
          "internalType": "string",
          "name": "",
          "type": "string"
        }
      ],
      "name": "NFTs",
      "outputs": [
        {
          "internalType": "uint256",
          "name": "price",
          "type": "uint256"
        },
        {
          "internalType": "string",
          "name": "symbol",
          "type": "string"
        },
        {
          "internalType": "uint16",
          "name": "finalToken",
          "type": "uint16"
        },
        {
          "internalType": "uint16",
          "name": "initialToken",
          "type": "uint16"
        },
        {
          "internalType": "uint16",
          "name": "tokensMinted",
          "type": "uint16"
        },
        {
          "internalType": "bool",
          "name": "exists",
          "type": "bool"
        }
      ],
      "stateMutability": "view",
      "type": "function"
    },
    {
      "inputs": [
        {
          "internalType": "address",
          "name": "to",
          "type": "address"
        },
        {
          "internalType": "uint256",
          "name": "tokenId",
          "type": "uint256"
        }
      ],
      "name": "approve",
      "outputs": [],
      "stateMutability": "nonpayable",
      "type": "function"
    },
    {
      "inputs": [
        {
          "internalType": "address",
          "name": "owner",
          "type": "address"
        }
      ],
      "name": "balanceOf",
      "outputs": [
        {
          "internalType": "uint256",
          "name": "",
          "type": "uint256"
        }
      ],
      "stateMutability": "view",
      "type": "function"
    },
    {
      "inputs": [],
      "name": "baseURI",
      "outputs": [
        {
          "internalType": "string",
          "name": "",
          "type": "string"
        }
      ],
      "stateMutability": "view",
      "type": "function"
    },
    {
      "inputs": [
        {
          "internalType": "uint256",
          "name": "tokenId",
          "type": "uint256"
        }
      ],
      "name": "getApproved",
      "outputs": [
        {
          "internalType": "address",
          "name": "",
          "type": "address"
        }
      ],
      "stateMutability": "view",
      "type": "function"
    },
    {
      "inputs": [
        {
          "internalType": "address",
          "name": "owner",
          "type": "address"
        },
        {
          "internalType": "address",
          "name": "operator",
          "type": "address"
        }
      ],
      "name": "isApprovedForAll",
      "outputs": [
        {
          "internalType": "bool",
          "name": "",
          "type": "bool"
        }
      ],
      "stateMutability": "view",
      "type": "function"
    },
    {
      "inputs": [
        {
          "internalType": "address",
          "name": "_user",
          "type": "address"
        }
      ],
      "name": "isWhitelisted",
      "outputs": [
        {
          "internalType": "bool",
          "name": "",
          "type": "bool"
        }
      ],
      "stateMutability": "view",
      "type": "function"
    },
    {
      "inputs": [],
      "name": "name",
      "outputs": [
        {
          "internalType": "string",
          "name": "",
          "type": "string"
        }
      ],
      "stateMutability": "view",
      "type": "function"
    },
    {
      "inputs": [],
      "name": "owner",
      "outputs": [
        {
          "internalType": "address",
          "name": "",
          "type": "address"
        }
      ],
      "stateMutability": "view",
      "type": "function"
    },
    {
      "inputs": [
        {
          "internalType": "uint256",
          "name": "tokenId",
          "type": "uint256"
        }
      ],
      "name": "ownerOf",
      "outputs": [
        {
          "internalType": "address",
          "name": "",
          "type": "address"
        }
      ],
      "stateMutability": "view",
      "type": "function"
    },
    {
      "inputs": [],
      "name": "payments",
      "outputs": [
        {
          "internalType": "address payable",
          "name": "",
          "type": "address"
        }
      ],
      "stateMutability": "view",
      "type": "function"
    },
    {
      "inputs": [],
      "name": "renounceOwnership",
      "outputs": [],
      "stateMutability": "nonpayable",
      "type": "function"
    },
    {
      "inputs": [
        {
          "internalType": "address",
          "name": "to",
          "type": "address"
        },
        {
          "internalType": "string",
          "name": "_symbol",
          "type": "string"
        }
      ],
      "name": "safeMint",
      "outputs": [],
      "stateMutability": "payable",
      "type": "function"
    },
    {
      "inputs": [
        {
          "internalType": "address",
          "name": "from",
          "type": "address"
        },
        {
          "internalType": "address",
          "name": "to",
          "type": "address"
        },
        {
          "internalType": "uint256",
          "name": "tokenId",
          "type": "uint256"
        }
      ],
      "name": "safeTransferFrom",
      "outputs": [],
      "stateMutability": "nonpayable",
      "type": "function"
    },
    {
      "inputs": [
        {
          "internalType": "address",
          "name": "from",
          "type": "address"
        },
        {
          "internalType": "address",
          "name": "to",
          "type": "address"
        },
        {
          "internalType": "uint256",
          "name": "tokenId",
          "type": "uint256"
        },
        {
          "internalType": "bytes",
          "name": "_data",
          "type": "bytes"
        }
      ],
      "name": "safeTransferFrom",
      "outputs": [],
      "stateMutability": "nonpayable",
      "type": "function"
    },
    {
      "inputs": [],
      "name": "saleDateTime",
      "outputs": [
        {
          "internalType": "uint256",
          "name": "",
          "type": "uint256"
        }
      ],
      "stateMutability": "view",
      "type": "function"
    },
    {
      "inputs": [
        {
          "internalType": "address",
          "name": "operator",
          "type": "address"
        },
        {
          "internalType": "bool",
          "name": "approved",
          "type": "bool"
        }
      ],
      "name": "setApprovalForAll",
      "outputs": [],
      "stateMutability": "nonpayable",
      "type": "function"
    },
    {
      "inputs": [
        {
          "internalType": "string",
          "name": "_newBaseURI",
          "type": "string"
        }
      ],
      "name": "setBaseURI",
      "outputs": [],
      "stateMutability": "nonpayable",
      "type": "function"
    },
    {
      "inputs": [
        {
          "internalType": "uint256",
          "name": "_saleDateTime",
          "type": "uint256"
        }
      ],
      "name": "setSaleDateTime",
      "outputs": [],
      "stateMutability": "nonpayable",
      "type": "function"
    },
    {
      "inputs": [
        {
          "internalType": "address[]",
          "name": "_addresses",
          "type": "address[]"
        }
      ],
      "name": "setWhitelistedAddresses",
      "outputs": [],
      "stateMutability": "nonpayable",
      "type": "function"
    },
    {
      "inputs": [
        {
          "internalType": "bytes4",
          "name": "interfaceId",
          "type": "bytes4"
        }
      ],
      "name": "supportsInterface",
      "outputs": [
        {
          "internalType": "bool",
          "name": "",
          "type": "bool"
        }
      ],
      "stateMutability": "view",
      "type": "function"
    },
    {
      "inputs": [],
      "name": "symbol",
      "outputs": [
        {
          "internalType": "string",
          "name": "",
          "type": "string"
        }
      ],
      "stateMutability": "view",
      "type": "function"
    },
    {
      "inputs": [
        {
          "internalType": "uint256",
          "name": "tokenId",
          "type": "uint256"
        }
      ],
      "name": "tokenURI",
      "outputs": [
        {
          "internalType": "string",
          "name": "",
          "type": "string"
        }
      ],
      "stateMutability": "view",
      "type": "function"
    },
    {
      "inputs": [
        {
          "internalType": "address",
          "name": "from",
          "type": "address"
        },
        {
          "internalType": "address",
          "name": "to",
          "type": "address"
        },
        {
          "internalType": "uint256",
          "name": "tokenId",
          "type": "uint256"
        }
      ],
      "name": "transferFrom",
      "outputs": [],
      "stateMutability": "nonpayable",
      "type": "function"
    },
    {
      "inputs": [
        {
          "internalType": "address",
          "name": "newOwner",
          "type": "address"
        }
      ],
      "name": "transferOwnership",
      "outputs": [],
      "stateMutability": "nonpayable",
      "type": "function"
    },
    {
      "inputs": [
        {
          "internalType": "uint256",
          "name": "",
          "type": "uint256"
        }
      ],
      "name": "whitelistedAddresses",
      "outputs": [
        {
          "internalType": "address",
          "name": "",
          "type": "address"
        }
      ],
      "stateMutability": "view",
      "type": "function"
    }
  ],
  "bytecode": "0x60806040523480156200001157600080fd5b5060405162004be738038062004be78339818101604052810190620000379190620009de565b898981600090805190602001906200005192919062000545565b5080600190805190602001906200006a92919062000545565b5050506200008d62000081620003a260201b60201c565b620003aa60201b60201c565b6200009e886200047060201b60201c565b81600a819055508260099080519060200190620000bd929190620005d6565b5080600b60006101000a81548173ffffffffffffffffffffffffffffffffffffffff021916908373ffffffffffffffffffffffffffffffffffffffff16021790555060005b87518161ffff16101562000391576040518060c00160405280888361ffff168151811062000159577f4e487b7100000000000000000000000000000000000000000000000000000000600052603260045260246000fd5b60200260200101518152602001898361ffff1681518110620001a4577f4e487b7100000000000000000000000000000000000000000000000000000000600052603260045260246000fd5b60200260200101518152602001868361ffff1681518110620001ef577f4e487b7100000000000000000000000000000000000000000000000000000000600052603260045260246000fd5b602002602001015161ffff168152602001878361ffff16815181106200023e577f4e487b7100000000000000000000000000000000000000000000000000000000600052603260045260246000fd5b602002602001015161ffff168152602001600061ffff168152602001600115158152506008898361ffff1681518110620002a1577f4e487b7100000000000000000000000000000000000000000000000000000000600052603260045260246000fd5b6020026020010151604051620002b8919062000bf4565b9081526020016040518091039020600082015181600001556020820151816001019080519060200190620002ee92919062000545565b5060408201518160020160006101000a81548161ffff021916908361ffff16021790555060608201518160020160026101000a81548161ffff021916908361ffff16021790555060808201518160020160046101000a81548161ffff021916908361ffff16021790555060a08201518160020160066101000a81548160ff0219169083151502179055509050508080620003889062000e5f565b91505062000102565b505050505050505050505062000fa4565b600033905090565b6000600660009054906101000a900473ffffffffffffffffffffffffffffffffffffffff16905081600660006101000a81548173ffffffffffffffffffffffffffffffffffffffff021916908373ffffffffffffffffffffffffffffffffffffffff1602179055508173ffffffffffffffffffffffffffffffffffffffff168173ffffffffffffffffffffffffffffffffffffffff167f8be0079c531659141344cd1fd0a4f28419497f9722a3daafe3b4186f6b6457e060405160405180910390a35050565b62000480620003a260201b60201c565b73ffffffffffffffffffffffffffffffffffffffff16620004a66200051b60201b60201c565b73ffffffffffffffffffffffffffffffffffffffff1614620004ff576040517f08c379a0000000000000000000000000000000000000000000000000000000008152600401620004f69062000c0d565b60405180910390fd5b80600790805190602001906200051792919062000545565b5050565b6000600660009054906101000a900473ffffffffffffffffffffffffffffffffffffffff16905090565b828054620005539062000df3565b90600052602060002090601f016020900481019282620005775760008555620005c3565b82601f106200059257805160ff1916838001178555620005c3565b82800160010185558215620005c3579182015b82811115620005c2578251825591602001919060010190620005a5565b5b509050620005d2919062000665565b5090565b82805482825590600052602060002090810192821562000652579160200282015b82811115620006515782518260006101000a81548173ffffffffffffffffffffffffffffffffffffffff021916908373ffffffffffffffffffffffffffffffffffffffff16021790555091602001919060010190620005f7565b5b50905062000661919062000665565b5090565b5b808211156200068057600081600090555060010162000666565b5090565b60006200069b620006958462000c58565b62000c2f565b90508083825260208201905082856020860282011115620006bb57600080fd5b60005b85811015620006ef5781620006d48882620008b8565b845260208401935060208301925050600181019050620006be565b5050509392505050565b6000620007106200070a8462000c87565b62000c2f565b905080838252602082019050828560208602820111156200073057600080fd5b60005b858110156200077f57815167ffffffffffffffff8111156200075457600080fd5b80860162000763898262000983565b8552602085019450602084019350505060018101905062000733565b5050509392505050565b6000620007a06200079a8462000cb6565b62000c2f565b90508083825260208201905082856020860282011115620007c057600080fd5b60005b85811015620007f45781620007d98882620009b0565b845260208401935060208301925050600181019050620007c3565b5050509392505050565b6000620008156200080f8462000ce5565b62000c2f565b905080838252602082019050828560208602820111156200083557600080fd5b60005b858110156200086957816200084e8882620009c7565b84526020840193506020830192505060018101905062000838565b5050509392505050565b60006200088a620008848462000d14565b62000c2f565b905082815260208101848484011115620008a357600080fd5b620008b084828562000dbd565b509392505050565b600081519050620008c98162000f56565b92915050565b600082601f830112620008e157600080fd5b8151620008f384826020860162000684565b91505092915050565b600082601f8301126200090e57600080fd5b815162000920848260208601620006f9565b91505092915050565b600082601f8301126200093b57600080fd5b81516200094d84826020860162000789565b91505092915050565b600082601f8301126200096857600080fd5b81516200097a848260208601620007fe565b91505092915050565b600082601f8301126200099557600080fd5b8151620009a784826020860162000873565b91505092915050565b600081519050620009c18162000f70565b92915050565b600081519050620009d88162000f8a565b92915050565b6000806000806000806000806000806101408b8d031215620009ff57600080fd5b60008b015167ffffffffffffffff81111562000a1a57600080fd5b62000a288d828e0162000983565b9a505060208b015167ffffffffffffffff81111562000a4657600080fd5b62000a548d828e0162000983565b99505060408b015167ffffffffffffffff81111562000a7257600080fd5b62000a808d828e0162000983565b98505060608b015167ffffffffffffffff81111562000a9e57600080fd5b62000aac8d828e01620008fc565b97505060808b015167ffffffffffffffff81111562000aca57600080fd5b62000ad88d828e0162000956565b96505060a08b015167ffffffffffffffff81111562000af657600080fd5b62000b048d828e0162000929565b95505060c08b015167ffffffffffffffff81111562000b2257600080fd5b62000b308d828e0162000929565b94505060e08b015167ffffffffffffffff81111562000b4e57600080fd5b62000b5c8d828e01620008cf565b93505061010062000b708d828e01620009c7565b92505061012062000b848d828e01620008b8565b9150509295989b9194979a5092959850565b600062000ba38262000d4a565b62000baf818562000d66565b935062000bc181856020860162000dbd565b80840191505092915050565b600062000bdc60208362000d55565b915062000be98262000f2d565b602082019050919050565b600062000c02828462000b96565b915081905092915050565b6000602082019050818103600083015262000c288162000bcd565b9050919050565b600062000c3b62000c4e565b905062000c49828262000e29565b919050565b6000604051905090565b600067ffffffffffffffff82111562000c765762000c7562000eed565b5b602082029050602081019050919050565b600067ffffffffffffffff82111562000ca55762000ca462000eed565b5b602082029050602081019050919050565b600067ffffffffffffffff82111562000cd45762000cd362000eed565b5b602082029050602081019050919050565b600067ffffffffffffffff82111562000d035762000d0262000eed565b5b602082029050602081019050919050565b600067ffffffffffffffff82111562000d325762000d3162000eed565b5b62000d3d8262000f1c565b9050602081019050919050565b600081519050919050565b600082825260208201905092915050565b600081905092915050565b600062000d7e8262000d93565b9050919050565b600061ffff82169050919050565b600073ffffffffffffffffffffffffffffffffffffffff82169050919050565b6000819050919050565b60005b8381101562000ddd57808201518184015260208101905062000dc0565b8381111562000ded576000848401525b50505050565b6000600282049050600182168062000e0c57607f821691505b6020821081141562000e235762000e2262000ebe565b5b50919050565b62000e348262000f1c565b810181811067ffffffffffffffff8211171562000e565762000e5562000eed565b5b80604052505050565b600062000e6c8262000d85565b915061ffff82141562000e845762000e8362000e8f565b5b600182019050919050565b7f4e487b7100000000000000000000000000000000000000000000000000000000600052601160045260246000fd5b7f4e487b7100000000000000000000000000000000000000000000000000000000600052602260045260246000fd5b7f4e487b7100000000000000000000000000000000000000000000000000000000600052604160045260246000fd5b6000601f19601f8301169050919050565b7f4f776e61626c653a2063616c6c6572206973206e6f7420746865206f776e6572600082015250565b62000f618162000d71565b811462000f6d57600080fd5b50565b62000f7b8162000d85565b811462000f8757600080fd5b50565b62000f958162000db3565b811462000fa157600080fd5b50565b613c338062000fb46000396000f3fe6080604052600436106101815760003560e01c8063715018a6116100d1578063b88d4fde1161008a578063d204c45e11610064578063d204c45e146105ab578063e985e9c5146105c7578063f1528ae114610604578063f2fde38b1461062d57610181565b8063b88d4fde14610508578063ba4e5c4914610531578063c87b56dd1461056e57610181565b8063715018a61461041c5780638da5cb5b1461043357806395d89b411461045e578063a22cb46514610489578063a6d23e10146104b2578063a9b1d7a7146104dd57610181565b80633af32abf1161013e57806355f804b31161011857806355f804b31461034e5780636352211e146103775780636c0360eb146103b457806370a08231146103df57610181565b80633af32abf146102bf57806342842e0e146102fc57806352d5423c1461032557610181565b806301ffc9a71461018657806306fdde03146101c3578063081812fc146101ee578063095ea7b31461022b57806323b872dd146102545780632cce27591461027d575b600080fd5b34801561019257600080fd5b506101ad60048036038101906101a89190612968565b610656565b6040516101ba9190612ec3565b60405180910390f35b3480156101cf57600080fd5b506101d8610738565b6040516101e59190612ede565b60405180910390f35b3480156101fa57600080fd5b50610215600480360381019061021091906129fb565b6107ca565b6040516102229190612e41565b60405180910390f35b34801561023757600080fd5b50610252600480360381019061024d91906128eb565b61084f565b005b34801561026057600080fd5b5061027b60048036038101906102769190612791565b610967565b005b34801561028957600080fd5b506102a4600480360381019061029f91906129ba565b6109c7565b6040516102b69695949392919061319b565b60405180910390f35b3480156102cb57600080fd5b506102e660048036038101906102e1919061272c565b610ad8565b6040516102f39190612ec3565b60405180910390f35b34801561030857600080fd5b50610323600480360381019061031e9190612791565b610bb5565b005b34801561033157600080fd5b5061034c600480360381019061034791906129fb565b610bd5565b005b34801561035a57600080fd5b50610375600480360381019061037091906129ba565b610c5b565b005b34801561038357600080fd5b5061039e600480360381019061039991906129fb565b610cf1565b6040516103ab9190612e41565b60405180910390f35b3480156103c057600080fd5b506103c9610da3565b6040516103d69190612ede565b60405180910390f35b3480156103eb57600080fd5b506104066004803603810190610401919061272c565b610e31565b6040516104139190613180565b60405180910390f35b34801561042857600080fd5b50610431610ee9565b005b34801561043f57600080fd5b50610448610f71565b6040516104559190612e41565b60405180910390f35b34801561046a57600080fd5b50610473610f9b565b6040516104809190612ede565b60405180910390f35b34801561049557600080fd5b506104b060048036038101906104ab919061285b565b61102d565b005b3480156104be57600080fd5b506104c7611043565b6040516104d49190612e5c565b60405180910390f35b3480156104e957600080fd5b506104f2611069565b6040516104ff9190613180565b60405180910390f35b34801561051457600080fd5b5061052f600480360381019061052a91906127e0565b61106f565b005b34801561053d57600080fd5b50610558600480360381019061055391906129fb565b6110d1565b6040516105659190612e41565b60405180910390f35b34801561057a57600080fd5b50610595600480360381019061059091906129fb565b611110565b6040516105a29190612ede565b60405180910390f35b6105c560048036038101906105c09190612897565b6111b7565b005b3480156105d357600080fd5b506105ee60048036038101906105e99190612755565b61143d565b6040516105fb9190612ec3565b60405180910390f35b34801561061057600080fd5b5061062b60048036038101906106269190612927565b6114d1565b005b34801561063957600080fd5b50610654600480360381019061064f919061272c565b611567565b005b60007f80ac58cd000000000000000000000000000000000000000000000000000000007bffffffffffffffffffffffffffffffffffffffffffffffffffffffff1916827bffffffffffffffffffffffffffffffffffffffffffffffffffffffff1916148061072157507f5b5e139f000000000000000000000000000000000000000000000000000000007bffffffffffffffffffffffffffffffffffffffffffffffffffffffff1916827bffffffffffffffffffffffffffffffffffffffffffffffffffffffff1916145b8061073157506107308261165f565b5b9050919050565b606060008054610747906134cd565b80601f0160208091040260200160405190810160405280929190818152602001828054610773906134cd565b80156107c05780601f10610795576101008083540402835291602001916107c0565b820191906000526020600020905b8154815290600101906020018083116107a357829003601f168201915b5050505050905090565b60006107d5826116c9565b610814576040517f08c379a000000000000000000000000000000000000000000000000000000000815260040161080b906130c0565b60405180910390fd5b6004600083815260200190815260200160002060009054906101000a900473ffffffffffffffffffffffffffffffffffffffff169050919050565b600061085a82610cf1565b90508073ffffffffffffffffffffffffffffffffffffffff168373ffffffffffffffffffffffffffffffffffffffff1614156108cb576040517f08c379a00000000000000000000000000000000000000000000000000000000081526004016108c290613120565b60405180910390fd5b8073ffffffffffffffffffffffffffffffffffffffff166108ea611735565b73ffffffffffffffffffffffffffffffffffffffff161480610919575061091881610913611735565b61143d565b5b610958576040517f08c379a000000000000000000000000000000000000000000000000000000000815260040161094f90613040565b60405180910390fd5b610962838361173d565b505050565b610978610972611735565b826117f6565b6109b7576040517f08c379a00000000000000000000000000000000000000000000000000000000081526004016109ae90613140565b60405180910390fd5b6109c28383836118d4565b505050565b600881805160208101820180518482526020830160208501208183528095505050505050600091509050806000015490806001018054610a06906134cd565b80601f0160208091040260200160405190810160405280929190818152602001828054610a32906134cd565b8015610a7f5780601f10610a5457610100808354040283529160200191610a7f565b820191906000526020600020905b815481529060010190602001808311610a6257829003601f168201915b5050505050908060020160009054906101000a900461ffff16908060020160029054906101000a900461ffff16908060020160049054906101000a900461ffff16908060020160069054906101000a900460ff16905086565b600080600090505b6009805490508161ffff161015610baa578273ffffffffffffffffffffffffffffffffffffffff1660098261ffff1681548110610b46577f4e487b7100000000000000000000000000000000000000000000000000000000600052603260045260246000fd5b9060005260206000200160009054906101000a900473ffffffffffffffffffffffffffffffffffffffff1673ffffffffffffffffffffffffffffffffffffffff161415610b97576001915050610bb0565b8080610ba290613530565b915050610ae0565b50600090505b919050565b610bd08383836040518060200160405280600081525061106f565b505050565b610bdd611735565b73ffffffffffffffffffffffffffffffffffffffff16610bfb610f71565b73ffffffffffffffffffffffffffffffffffffffff1614610c51576040517f08c379a0000000000000000000000000000000000000000000000000000000008152600401610c48906130e0565b60405180910390fd5b80600a8190555050565b610c63611735565b73ffffffffffffffffffffffffffffffffffffffff16610c81610f71565b73ffffffffffffffffffffffffffffffffffffffff1614610cd7576040517f08c379a0000000000000000000000000000000000000000000000000000000008152600401610cce906130e0565b60405180910390fd5b8060079080519060200190610ced929190612430565b5050565b6000806002600084815260200190815260200160002060009054906101000a900473ffffffffffffffffffffffffffffffffffffffff169050600073ffffffffffffffffffffffffffffffffffffffff168173ffffffffffffffffffffffffffffffffffffffff161415610d9a576040517f08c379a0000000000000000000000000000000000000000000000000000000008152600401610d9190613080565b60405180910390fd5b80915050919050565b60078054610db0906134cd565b80601f0160208091040260200160405190810160405280929190818152602001828054610ddc906134cd565b8015610e295780601f10610dfe57610100808354040283529160200191610e29565b820191906000526020600020905b815481529060010190602001808311610e0c57829003601f168201915b505050505081565b60008073ffffffffffffffffffffffffffffffffffffffff168273ffffffffffffffffffffffffffffffffffffffff161415610ea2576040517f08c379a0000000000000000000000000000000000000000000000000000000008152600401610e9990613060565b60405180910390fd5b600360008373ffffffffffffffffffffffffffffffffffffffff1673ffffffffffffffffffffffffffffffffffffffff168152602001908152602001600020549050919050565b610ef1611735565b73ffffffffffffffffffffffffffffffffffffffff16610f0f610f71565b73ffffffffffffffffffffffffffffffffffffffff1614610f65576040517f08c379a0000000000000000000000000000000000000000000000000000000008152600401610f5c906130e0565b60405180910390fd5b610f6f6000611b3b565b565b6000600660009054906101000a900473ffffffffffffffffffffffffffffffffffffffff16905090565b606060018054610faa906134cd565b80601f0160208091040260200160405190810160405280929190818152602001828054610fd6906134cd565b80156110235780601f10610ff857610100808354040283529160200191611023565b820191906000526020600020905b81548152906001019060200180831161100657829003601f168201915b5050505050905090565b61103f611038611735565b8383611c01565b5050565b600b60009054906101000a900473ffffffffffffffffffffffffffffffffffffffff1681565b600a5481565b61108061107a611735565b836117f6565b6110bf576040517f08c379a00000000000000000000000000000000000000000000000000000000081526004016110b690613140565b60405180910390fd5b6110cb84848484611d6e565b50505050565b600981815481106110e157600080fd5b906000526020600020016000915054906101000a900473ffffffffffffffffffffffffffffffffffffffff1681565b606061111b826116c9565b61115a576040517f08c379a000000000000000000000000000000000000000000000000000000000815260040161115190613100565b60405180910390fd5b6000611164611dca565b9050600081511161118457604051806020016040528060008152506111af565b8061118e84611e5c565b60405160200161119f929190612e08565b6040516020818303038152906040525b915050919050565b600a54421015806111cd57506111cc82610ad8565b5b61120c576040517f08c379a000000000000000000000000000000000000000000000000000000000815260040161120390613020565b60405180910390fd5b600060088260405161121e9190612df1565b908152602001604051809103902090508060020160069054906101000a900460ff1661127f576040517f08c379a000000000000000000000000000000000000000000000000000000000815260040161127690612f00565b60405180910390fd5b80600001543410156112c6576040517f08c379a00000000000000000000000000000000000000000000000000000000081526004016112bd90613160565b60405180910390fd5b60008160020160049054906101000a900461ffff168260020160029054906101000a900461ffff166112f89190613304565b61ffff1690508160020160009054906101000a900461ffff1661ffff16811115611357576040517f08c379a000000000000000000000000000000000000000000000000000000000815260040161134e90612fa0565b60405180910390fd5b81600201600481819054906101000a900461ffff168092919061137990613530565b91906101000a81548161ffff021916908361ffff1602179055505061139e8482612009565b6000600b60009054906101000a900473ffffffffffffffffffffffffffffffffffffffff1673ffffffffffffffffffffffffffffffffffffffff16476040516113e690612e2c565b60006040518083038185875af1925050503d8060008114611423576040519150601f19603f3d011682016040523d82523d6000602084013e611428565b606091505b505090508061143657600080fd5b5050505050565b6000600560008473ffffffffffffffffffffffffffffffffffffffff1673ffffffffffffffffffffffffffffffffffffffff16815260200190815260200160002060008373ffffffffffffffffffffffffffffffffffffffff1673ffffffffffffffffffffffffffffffffffffffff16815260200190815260200160002060009054906101000a900460ff16905092915050565b6114d9611735565b73ffffffffffffffffffffffffffffffffffffffff166114f7610f71565b73ffffffffffffffffffffffffffffffffffffffff161461154d576040517f08c379a0000000000000000000000000000000000000000000000000000000008152600401611544906130e0565b60405180910390fd5b80600990805190602001906115639291906124b6565b5050565b61156f611735565b73ffffffffffffffffffffffffffffffffffffffff1661158d610f71565b73ffffffffffffffffffffffffffffffffffffffff16146115e3576040517f08c379a00000000000000000000000000000000000000000000000000000000081526004016115da906130e0565b60405180910390fd5b600073ffffffffffffffffffffffffffffffffffffffff168173ffffffffffffffffffffffffffffffffffffffff161415611653576040517f08c379a000000000000000000000000000000000000000000000000000000000815260040161164a90612f40565b60405180910390fd5b61165c81611b3b565b50565b60007f01ffc9a7000000000000000000000000000000000000000000000000000000007bffffffffffffffffffffffffffffffffffffffffffffffffffffffff1916827bffffffffffffffffffffffffffffffffffffffffffffffffffffffff1916149050919050565b60008073ffffffffffffffffffffffffffffffffffffffff166002600084815260200190815260200160002060009054906101000a900473ffffffffffffffffffffffffffffffffffffffff1673ffffffffffffffffffffffffffffffffffffffff1614159050919050565b600033905090565b816004600083815260200190815260200160002060006101000a81548173ffffffffffffffffffffffffffffffffffffffff021916908373ffffffffffffffffffffffffffffffffffffffff160217905550808273ffffffffffffffffffffffffffffffffffffffff166117b083610cf1565b73ffffffffffffffffffffffffffffffffffffffff167f8c5be1e5ebec7d5bd14f71427d1e84f3dd0314c0f7b2291e5b200ac8c7c3b92560405160405180910390a45050565b6000611801826116c9565b611840576040517f08c379a000000000000000000000000000000000000000000000000000000000815260040161183790613000565b60405180910390fd5b600061184b83610cf1565b90508073ffffffffffffffffffffffffffffffffffffffff168473ffffffffffffffffffffffffffffffffffffffff1614806118ba57508373ffffffffffffffffffffffffffffffffffffffff166118a2846107ca565b73ffffffffffffffffffffffffffffffffffffffff16145b806118cb57506118ca818561143d565b5b91505092915050565b8273ffffffffffffffffffffffffffffffffffffffff166118f482610cf1565b73ffffffffffffffffffffffffffffffffffffffff161461194a576040517f08c379a000000000000000000000000000000000000000000000000000000000815260040161194190612f60565b60405180910390fd5b600073ffffffffffffffffffffffffffffffffffffffff168273ffffffffffffffffffffffffffffffffffffffff1614156119ba576040517f08c379a00000000000000000000000000000000000000000000000000000000081526004016119b190612fc0565b60405180910390fd5b6119c5838383612027565b6119d060008261173d565b6001600360008573ffffffffffffffffffffffffffffffffffffffff1673ffffffffffffffffffffffffffffffffffffffff1681526020019081526020016000206000828254611a2091906133c3565b925050819055506001600360008473ffffffffffffffffffffffffffffffffffffffff1673ffffffffffffffffffffffffffffffffffffffff1681526020019081526020016000206000828254611a77919061333c565b92505081905550816002600083815260200190815260200160002060006101000a81548173ffffffffffffffffffffffffffffffffffffffff021916908373ffffffffffffffffffffffffffffffffffffffff160217905550808273ffffffffffffffffffffffffffffffffffffffff168473ffffffffffffffffffffffffffffffffffffffff167fddf252ad1be2c89b69c2b068fc378daa952ba7f163c4a11628f55a4df523b3ef60405160405180910390a4611b36838383612037565b505050565b6000600660009054906101000a900473ffffffffffffffffffffffffffffffffffffffff16905081600660006101000a81548173ffffffffffffffffffffffffffffffffffffffff021916908373ffffffffffffffffffffffffffffffffffffffff1602179055508173ffffffffffffffffffffffffffffffffffffffff168173ffffffffffffffffffffffffffffffffffffffff167f8be0079c531659141344cd1fd0a4f28419497f9722a3daafe3b4186f6b6457e060405160405180910390a35050565b8173ffffffffffffffffffffffffffffffffffffffff168373ffffffffffffffffffffffffffffffffffffffff161415611c70576040517f08c379a0000000000000000000000000000000000000000000000000000000008152600401611c6790612fe0565b60405180910390fd5b80600560008573ffffffffffffffffffffffffffffffffffffffff1673ffffffffffffffffffffffffffffffffffffffff16815260200190815260200160002060008473ffffffffffffffffffffffffffffffffffffffff1673ffffffffffffffffffffffffffffffffffffffff16815260200190815260200160002060006101000a81548160ff0219169083151502179055508173ffffffffffffffffffffffffffffffffffffffff168373ffffffffffffffffffffffffffffffffffffffff167f17307eab39ab6107e8899845ad3d59bd9653f200f220920489ca2b5937696c3183604051611d619190612ec3565b60405180910390a3505050565b611d798484846118d4565b611d858484848461203c565b611dc4576040517f08c379a0000000000000000000000000000000000000000000000000000000008152600401611dbb90612f20565b60405180910390fd5b50505050565b606060078054611dd9906134cd565b80601f0160208091040260200160405190810160405280929190818152602001828054611e05906134cd565b8015611e525780601f10611e2757610100808354040283529160200191611e52565b820191906000526020600020905b815481529060010190602001808311611e3557829003601f168201915b5050505050905090565b60606000821415611ea4576040518060400160405280600181526020017f30000000000000000000000000000000000000000000000000000000000000008152509050612004565b600082905060005b60008214611ed6578080611ebf9061355b565b915050600a82611ecf9190613392565b9150611eac565b60008167ffffffffffffffff811115611f18577f4e487b7100000000000000000000000000000000000000000000000000000000600052604160045260246000fd5b6040519080825280601f01601f191660200182016040528015611f4a5781602001600182028036833780820191505090505b5090505b60008514611ffd57600182611f6391906133c3565b9150600a85611f7291906135a4565b6030611f7e919061333c565b60f81b818381518110611fba577f4e487b7100000000000000000000000000000000000000000000000000000000600052603260045260246000fd5b60200101907effffffffffffffffffffffffffffffffffffffffffffffffffffffffffffff1916908160001a905350600a85611ff69190613392565b9450611f4e565b8093505050505b919050565b6120238282604051806020016040528060008152506121d3565b5050565b61203283838361222e565b505050565b505050565b600061205d8473ffffffffffffffffffffffffffffffffffffffff16612233565b156121c6578373ffffffffffffffffffffffffffffffffffffffff1663150b7a02612086611735565b8786866040518563ffffffff1660e01b81526004016120a89493929190612e77565b602060405180830381600087803b1580156120c257600080fd5b505af19250505080156120f357506040513d601f19601f820116820180604052508101906120f09190612991565b60015b612176573d8060008114612123576040519150601f19603f3d011682016040523d82523d6000602084013e612128565b606091505b5060008151141561216e576040517f08c379a000000000000000000000000000000000000000000000000000000000815260040161216590612f20565b60405180910390fd5b805181602001fd5b63150b7a0260e01b7bffffffffffffffffffffffffffffffffffffffffffffffffffffffff1916817bffffffffffffffffffffffffffffffffffffffffffffffffffffffff1916149150506121cb565b600190505b949350505050565b6121dd8383612256565b6121ea600084848461203c565b612229576040517f08c379a000000000000000000000000000000000000000000000000000000000815260040161222090612f20565b60405180910390fd5b505050565b505050565b6000808273ffffffffffffffffffffffffffffffffffffffff163b119050919050565b600073ffffffffffffffffffffffffffffffffffffffff168273ffffffffffffffffffffffffffffffffffffffff1614156122c6576040517f08c379a00000000000000000000000000000000000000000000000000000000081526004016122bd906130a0565b60405180910390fd5b6122cf816116c9565b1561230f576040517f08c379a000000000000000000000000000000000000000000000000000000000815260040161230690612f80565b60405180910390fd5b61231b60008383612027565b6001600360008473ffffffffffffffffffffffffffffffffffffffff1673ffffffffffffffffffffffffffffffffffffffff168152602001908152602001600020600082825461236b919061333c565b92505081905550816002600083815260200190815260200160002060006101000a81548173ffffffffffffffffffffffffffffffffffffffff021916908373ffffffffffffffffffffffffffffffffffffffff160217905550808273ffffffffffffffffffffffffffffffffffffffff16600073ffffffffffffffffffffffffffffffffffffffff167fddf252ad1be2c89b69c2b068fc378daa952ba7f163c4a11628f55a4df523b3ef60405160405180910390a461242c60008383612037565b5050565b82805461243c906134cd565b90600052602060002090601f01602090048101928261245e57600085556124a5565b82601f1061247757805160ff19168380011785556124a5565b828001600101855582156124a5579182015b828111156124a4578251825591602001919060010190612489565b5b5090506124b29190612540565b5090565b82805482825590600052602060002090810192821561252f579160200282015b8281111561252e5782518260006101000a81548173ffffffffffffffffffffffffffffffffffffffff021916908373ffffffffffffffffffffffffffffffffffffffff160217905550916020019190600101906124d6565b5b50905061253c9190612540565b5090565b5b80821115612559576000816000905550600101612541565b5090565b600061257061256b84613228565b613203565b9050808382526020820190508285602086028201111561258f57600080fd5b60005b858110156125bf57816125a58882612645565b845260208401935060208301925050600181019050612592565b5050509392505050565b60006125dc6125d784613254565b613203565b9050828152602081018484840111156125f457600080fd5b6125ff84828561348b565b509392505050565b600061261a61261584613285565b613203565b90508281526020810184848401111561263257600080fd5b61263d84828561348b565b509392505050565b60008135905061265481613ba1565b92915050565b600082601f83011261266b57600080fd5b813561267b84826020860161255d565b91505092915050565b60008135905061269381613bb8565b92915050565b6000813590506126a881613bcf565b92915050565b6000815190506126bd81613bcf565b92915050565b600082601f8301126126d457600080fd5b81356126e48482602086016125c9565b91505092915050565b600082601f8301126126fe57600080fd5b813561270e848260208601612607565b91505092915050565b60008135905061272681613be6565b92915050565b60006020828403121561273e57600080fd5b600061274c84828501612645565b91505092915050565b6000806040838503121561276857600080fd5b600061277685828601612645565b925050602061278785828601612645565b9150509250929050565b6000806000606084860312156127a657600080fd5b60006127b486828701612645565b93505060206127c586828701612645565b92505060406127d686828701612717565b9150509250925092565b600080600080608085870312156127f657600080fd5b600061280487828801612645565b945050602061281587828801612645565b935050604061282687828801612717565b925050606085013567ffffffffffffffff81111561284357600080fd5b61284f878288016126c3565b91505092959194509250565b6000806040838503121561286e57600080fd5b600061287c85828601612645565b925050602061288d85828601612684565b9150509250929050565b600080604083850312156128aa57600080fd5b60006128b885828601612645565b925050602083013567ffffffffffffffff8111156128d557600080fd5b6128e1858286016126ed565b9150509250929050565b600080604083850312156128fe57600080fd5b600061290c85828601612645565b925050602061291d85828601612717565b9150509250929050565b60006020828403121561293957600080fd5b600082013567ffffffffffffffff81111561295357600080fd5b61295f8482850161265a565b91505092915050565b60006020828403121561297a57600080fd5b600061298884828501612699565b91505092915050565b6000602082840312156129a357600080fd5b60006129b1848285016126ae565b91505092915050565b6000602082840312156129cc57600080fd5b600082013567ffffffffffffffff8111156129e657600080fd5b6129f2848285016126ed565b91505092915050565b600060208284031215612a0d57600080fd5b6000612a1b84828501612717565b91505092915050565b612a2d81613409565b82525050565b612a3c816133f7565b82525050565b612a4b8161341b565b82525050565b6000612a5c826132b6565b612a6681856132cc565b9350612a7681856020860161349a565b612a7f81613691565b840191505092915050565b6000612a95826132c1565b612a9f81856132e8565b9350612aaf81856020860161349a565b612ab881613691565b840191505092915050565b6000612ace826132c1565b612ad881856132f9565b9350612ae881856020860161349a565b80840191505092915050565b6000612b01600d836132e8565b9150612b0c826136a2565b602082019050919050565b6000612b246032836132e8565b9150612b2f826136cb565b604082019050919050565b6000612b476026836132e8565b9150612b528261371a565b604082019050919050565b6000612b6a6025836132e8565b9150612b7582613769565b604082019050919050565b6000612b8d601c836132e8565b9150612b98826137b8565b602082019050919050565b6000612bb06012836132e8565b9150612bbb826137e1565b602082019050919050565b6000612bd36024836132e8565b9150612bde8261380a565b604082019050919050565b6000612bf66019836132e8565b9150612c0182613859565b602082019050919050565b6000612c19602c836132e8565b9150612c2482613882565b604082019050919050565b6000612c3c6011836132e8565b9150612c47826138d1565b602082019050919050565b6000612c5f6038836132e8565b9150612c6a826138fa565b604082019050919050565b6000612c82602a836132e8565b9150612c8d82613949565b604082019050919050565b6000612ca56029836132e8565b9150612cb082613998565b604082019050919050565b6000612cc86020836132e8565b9150612cd3826139e7565b602082019050919050565b6000612ceb602c836132e8565b9150612cf682613a10565b604082019050919050565b6000612d0e6020836132e8565b9150612d1982613a5f565b602082019050919050565b6000612d31602f836132e8565b9150612d3c82613a88565b604082019050919050565b6000612d546021836132e8565b9150612d5f82613ad7565b604082019050919050565b6000612d776000836132dd565b9150612d8282613b26565b600082019050919050565b6000612d9a6031836132e8565b9150612da582613b29565b604082019050919050565b6000612dbd6013836132e8565b9150612dc882613b78565b602082019050919050565b612ddc81613453565b82525050565b612deb81613481565b82525050565b6000612dfd8284612ac3565b915081905092915050565b6000612e148285612ac3565b9150612e208284612ac3565b91508190509392505050565b6000612e3782612d6a565b9150819050919050565b6000602082019050612e566000830184612a33565b92915050565b6000602082019050612e716000830184612a24565b92915050565b6000608082019050612e8c6000830187612a33565b612e996020830186612a33565b612ea66040830185612de2565b8181036060830152612eb88184612a51565b905095945050505050565b6000602082019050612ed86000830184612a42565b92915050565b60006020820190508181036000830152612ef88184612a8a565b905092915050565b60006020820190508181036000830152612f1981612af4565b9050919050565b60006020820190508181036000830152612f3981612b17565b9050919050565b60006020820190508181036000830152612f5981612b3a565b9050919050565b60006020820190508181036000830152612f7981612b5d565b9050919050565b60006020820190508181036000830152612f9981612b80565b9050919050565b60006020820190508181036000830152612fb981612ba3565b9050919050565b60006020820190508181036000830152612fd981612bc6565b9050919050565b60006020820190508181036000830152612ff981612be9565b9050919050565b6000602082019050818103600083015261301981612c0c565b9050919050565b6000602082019050818103600083015261303981612c2f565b9050919050565b6000602082019050818103600083015261305981612c52565b9050919050565b6000602082019050818103600083015261307981612c75565b9050919050565b6000602082019050818103600083015261309981612c98565b9050919050565b600060208201905081810360008301526130b981612cbb565b9050919050565b600060208201905081810360008301526130d981612cde565b9050919050565b600060208201905081810360008301526130f981612d01565b9050919050565b6000602082019050818103600083015261311981612d24565b9050919050565b6000602082019050818103600083015261313981612d47565b9050919050565b6000602082019050818103600083015261315981612d8d565b9050919050565b6000602082019050818103600083015261317981612db0565b9050919050565b60006020820190506131956000830184612de2565b92915050565b600060c0820190506131b06000830189612de2565b81810360208301526131c28188612a8a565b90506131d16040830187612dd3565b6131de6060830186612dd3565b6131eb6080830185612dd3565b6131f860a0830184612a42565b979650505050505050565b600061320d61321e565b905061321982826134ff565b919050565b6000604051905090565b600067ffffffffffffffff82111561324357613242613662565b5b602082029050602081019050919050565b600067ffffffffffffffff82111561326f5761326e613662565b5b61327882613691565b9050602081019050919050565b600067ffffffffffffffff8211156132a05761329f613662565b5b6132a982613691565b9050602081019050919050565b600081519050919050565b600081519050919050565b600082825260208201905092915050565b600081905092915050565b600082825260208201905092915050565b600081905092915050565b600061330f82613453565b915061331a83613453565b92508261ffff03821115613331576133306135d5565b5b828201905092915050565b600061334782613481565b915061335283613481565b9250827fffffffffffffffffffffffffffffffffffffffffffffffffffffffffffffffff03821115613387576133866135d5565b5b828201905092915050565b600061339d82613481565b91506133a883613481565b9250826133b8576133b7613604565b5b828204905092915050565b60006133ce82613481565b91506133d983613481565b9250828210156133ec576133eb6135d5565b5b828203905092915050565b600061340282613461565b9050919050565b600061341482613461565b9050919050565b60008115159050919050565b60007fffffffff0000000000000000000000000000000000000000000000000000000082169050919050565b600061ffff82169050919050565b600073ffffffffffffffffffffffffffffffffffffffff82169050919050565b6000819050919050565b82818337600083830152505050565b60005b838110156134b857808201518184015260208101905061349d565b838111156134c7576000848401525b50505050565b600060028204905060018216806134e557607f821691505b602082108114156134f9576134f8613633565b5b50919050565b61350882613691565b810181811067ffffffffffffffff8211171561352757613526613662565b5b80604052505050565b600061353b82613453565b915061ffff8214156135505761354f6135d5565b5b600182019050919050565b600061356682613481565b91507fffffffffffffffffffffffffffffffffffffffffffffffffffffffffffffffff821415613599576135986135d5565b5b600182019050919050565b60006135af82613481565b91506135ba83613481565b9250826135ca576135c9613604565b5b828206905092915050565b7f4e487b7100000000000000000000000000000000000000000000000000000000600052601160045260246000fd5b7f4e487b7100000000000000000000000000000000000000000000000000000000600052601260045260246000fd5b7f4e487b7100000000000000000000000000000000000000000000000000000000600052602260045260246000fd5b7f4e487b7100000000000000000000000000000000000000000000000000000000600052604160045260246000fd5b6000601f19601f8301169050919050565b7f4e4654206e6f7420666f756e6400000000000000000000000000000000000000600082015250565b7f4552433732313a207472616e7366657220746f206e6f6e20455243373231526560008201527f63656976657220696d706c656d656e7465720000000000000000000000000000602082015250565b7f4f776e61626c653a206e6577206f776e657220697320746865207a65726f206160008201527f6464726573730000000000000000000000000000000000000000000000000000602082015250565b7f4552433732313a207472616e736665722066726f6d20696e636f72726563742060008201527f6f776e6572000000000000000000000000000000000000000000000000000000602082015250565b7f4552433732313a20746f6b656e20616c7265616479206d696e74656400000000600082015250565b7f4d6178206c696d69742072656163686564210000000000000000000000000000600082015250565b7f4552433732313a207472616e7366657220746f20746865207a65726f2061646460008201527f7265737300000000000000000000000000000000000000000000000000000000602082015250565b7f4552433732313a20617070726f766520746f2063616c6c657200000000000000600082015250565b7f4552433732313a206f70657261746f7220717565727920666f72206e6f6e657860008201527f697374656e7420746f6b656e0000000000000000000000000000000000000000602082015250565b7f53616c65206e6f74207374617274656421000000000000000000000000000000600082015250565b7f4552433732313a20617070726f76652063616c6c6572206973206e6f74206f7760008201527f6e6572206e6f7220617070726f76656420666f7220616c6c0000000000000000602082015250565b7f4552433732313a2062616c616e636520717565727920666f7220746865207a6560008201527f726f206164647265737300000000000000000000000000000000000000000000602082015250565b7f4552433732313a206f776e657220717565727920666f72206e6f6e657869737460008201527f656e7420746f6b656e0000000000000000000000000000000000000000000000602082015250565b7f4552433732313a206d696e7420746f20746865207a65726f2061646472657373600082015250565b7f4552433732313a20617070726f76656420717565727920666f72206e6f6e657860008201527f697374656e7420746f6b656e0000000000000000000000000000000000000000602082015250565b7f4f776e61626c653a2063616c6c6572206973206e6f7420746865206f776e6572600082015250565b7f4552433732314d657461646174613a2055524920717565727920666f72206e6f60008201527f6e6578697374656e7420746f6b656e0000000000000000000000000000000000602082015250565b7f4552433732313a20617070726f76616c20746f2063757272656e74206f776e6560008201527f7200000000000000000000000000000000000000000000000000000000000000602082015250565b50565b7f4552433732313a207472616e736665722063616c6c6572206973206e6f74206f60008201527f776e6572206e6f7220617070726f766564000000000000000000000000000000602082015250565b7f496e73756666696369656e742066756e64732100000000000000000000000000600082015250565b613baa816133f7565b8114613bb557600080fd5b50565b613bc18161341b565b8114613bcc57600080fd5b50565b613bd881613427565b8114613be357600080fd5b50565b613bef81613481565b8114613bfa57600080fd5b5056fea26469706673582212200ce60b50460d53f9832a6a9e091498b99b268246e5a59102c9c8e243d0f28e0364736f6c63430008040033",
  "linkReferences": {},
  "deployedLinkReferences": {}
}